:100000000C942A000C9493040C94C1040C94EF04F7
:100010000C9447000C9447000C9447000C94470044
:100020000C9447000C9447000C94D9030C940204E0
:100030000C9447000C9447000C9447000C94470024
:100040000C9447000C9447000C9447000C94470014
:100050000C94470011241FBECFE5D8E0DEBFCDBF12
:1000600010E0A0E6B0E0E8E6FCE002C005900D92EA
:10007000A837B107D9F720E0A8E7B0E001C01D928A
:10008000A838B207E1F70E9421060C9432060C94BE
:100090000000883010F081E00895623409F54111C4
:1000A0000DC047B321E030E0B90102C0660F771FF1
:1000B0008A95E2F7CB01809584230DC0413071F41D
:1000C00047B321E030E0B90102C0660F771F8A957F
:1000D000E2F7CB01842B87BB80E0089583E008958D
:1000E000633400F5613411F541110DC04AB321E0CC
:1000F00030E0B90102C0660F771F8A95E2F7CB01A5
:10010000809584230DC0413049F74AB321E030E0A7
:10011000B90102C0660F771F8A95E2F7CB01842BE5
:100120008ABBDACF633421F0643401F182E00895B0
:1001300041110DC044B321E030E0B90102C0660FA7
:10014000771F8A95E2F7CB01809584230DC041305B
:1001500029F644B321E030E0B90102C0660F771FF1
:100160008A95E2F7CB01842B84BBB6CF41110DC039
:1001700041B321E030E0B90102C0660F771F8A95D4
:10018000E2F7CB01809584230EC0413009F0A6CF61
:1001900041B321E030E0B90102C0660F771F8A95B4
:1001A000E2F7CB01842B81BB97CF883010F081E040
:1001B0000895623409F541110DC048B321E030E0E3
:1001C000B90102C0660F771F8A95E2F7CB018095CF
:1001D00084230DC0413071F448B321E030E0B9010F
:1001E00002C0660F771F8A95E2F7CB01842B88BB8C
:1001F00080E0089584E00895633400F5613411F5DA
:1002000041110DC04BB321E030E0B90102C0660FCF
:10021000771F8A95E2F7CB01809584230DC041308A
:1002200049F74BB321E030E0B90102C0660F771FF8
:100230008A95E2F7CB01842B8BBBDACF633421F0B4
:10024000643401F182E0089541110DC045B321E00D
:1002500030E0B90102C0660F771F8A95E2F7CB0143
:10026000809584230DC0413029F645B321E030E06C
:10027000B90102C0660F771F8A95E2F7CB01842B84
:1002800085BBB6CF41110DC042B321E030E0B901CA
:1002900002C0660F771F8A95E2F7CB018095842311
:1002A0000EC0413009F0A6CF42B321E030E0B901E1
:1002B00002C0660F771F8A95E2F7CB01842B82BBC1
:1002C00097CFFA01883010F081E00895623411F47C
:1002D00026B305C0633488F4613469F429B330E08F
:1002E000A90102C0559547958A95E2F7CA01817028
:1002F000808380E0089582E00895633411F423B38D
:10030000EECF6434C1F720B3EACF883010F081E03B
:100310000895623469F448B321E030E0B90102C0C5
:10032000660F771F8A95E2F7CB01842788BB10C040
:10033000633490F4613471F44BB321E030E0B901DF
:1003400002C0660F771F8A95E2F7CB0184278BBB2B
:1003500080E0089582E00895633469F445B321E0B4
:1003600030E0B90102C0660F771F8A95E2F7CB0132
:10037000842785BBEDCF643469F742B321E030E0D8
:10038000B90102C0660F771F8A95E2F7CB01842777
:1003900082BBDECF823459F020F4813469F46ABB29
:1003A00009C0833431F0843439F461BB03C067BBC6
:1003B00001C064BB80E0089582E00895823459F062
:1003C00020F4813469F46BBB09C0833431F0843488
:1003D00039F462BB03C068BB01C065BB80E008950F
:1003E00082E00895FB01823459F020F4813471F4E5
:1003F00089B309C0833431F0843441F480B303C03D
:1004000086B301C083B3808380E0089582E00895BD
:10041000823479F030F48134A9F48BB380958BBBAE
:100420000FC0833451F0843469F482B3809582BB69
:1004300007C088B3809588BB03C085B3809585BB12
:1004400080E0089582E00895862F672F40E00E94A3
:100450004900813021F0823021F482E0089581E06A
:10046000089580E00895AC014E5F5F4FFC0161810B
:1004700080810E946101813021F0823021F482E08C
:10048000089581E0089580E0089541E0692F0E9479
:100490004900813021F0823021F482E0089581E02A
:1004A000089580E0089541E0692F0E94D5008130D1
:1004B00021F0823021F482E0089581E0089580E007
:1004C000089540E0692F0E94D500813021F08230EC
:1004D00021F482E0089581E0089580E00895692F75
:1004E0000E948501813021F0823021F482E008955C
:1004F00081E0089580E0089541E063E480E00E9497
:10050000490041E063E481E00E94490041E063E486
:1005100082E00E94490041E063E483E00E944900D8
:1005200041E063E480E00E94D50041E063E481E0C3
:100530000E94D50041E063E482E00E94D50041E0E2
:1005400063E483E00E94D50040E063E484E00E941D
:10055000490040E063E485E00E94490040E063E434
:1005600086E00E94490040E063E487E00E94490081
:1005700041E063E484E00E94D50041E063E485E06B
:100580000E94D50041E063E486E00E94D50041E08E
:1005900063E487E00C94D5008F929F92AF92BF9254
:1005A000CF92DF92EF92FF920F931F93CF93DF933F
:1005B000CDB7DEB769970FB6F894DEBF0FBECDBFDB
:1005C00080E1E0E6F0E0DE01119601900D928A955F
:1005D000E1F781E0898F8091700090917100A09186
:1005E0007200B09173008D8B9E8BAF8BB88F809112
:1005F000740090917500A0917600B0917700898B7E
:100600009A8BAB8BBC8B5E0185E1A80EB11CE12CF3
:10061000F12CF501D1905F0140E063E48D2D0E9443
:10062000D5004E01F1E18F0E911C00E010E0F401C5
:10063000C1904F01AE01475E5F4F63E48C2D0E9475
:100640006101898D811120C0F801EE0FFF1FEE0FAF
:10065000FF1F81E090E08C0F9D1FE80FF91FEE0D4A
:10066000FF1D1081898D811108C0AE01475E5F4F6B
:1006700063E48C2D0E946101F5CF41E063E48D2D90
:100680000E94D500812F13C00F5F1F4F043011054A
:1006900071F641E063E48D2D0E94D5009FEFE91AC9
:1006A000F90AE4E0EE16F10409F0B3CF85E66996A5
:1006B0000FB6F894DEBF0FBECDBFDF91CF911F9173
:1006C0000F91FF90EF90DF90CF90BF90AF909F90F1
:1006D0008F900895FC019081913071F050F092302C
:1006E000A1F09330D1F483B78F7783BF83B7806451
:1006F0000EC083B78F7B05C083B78F7783BF83B767
:10070000806483BF83B7877F05C083B78F7B83BF38
:1007100083B7886083BF80E001C081E0928191301F
:1007200059F038F0923089F09330B1F493B790617A
:100730000EC093B79F7E05C090819D7F69F493B7EB
:10074000906193BF93B79F7D05C093B79F7E93BF82
:1007500093B7906293BF089582E0089523B7287FEE
:1007600023BF23B7FC018181822B83BF089583B708
:100770008E7F83BF83B78D7F83BF83B78B7F83BF1C
:10078000089582BF089522B7FC01208308958CBF8D
:10079000089589B7816089BF089589B78E7F89BF21
:1007A000089589B7826089BF089589B78D7F89BF11
:1007B00008951F920F920FB60F9211242F933F931B
:1007C0004F935F936F937F938F939F93AF93BF9359
:1007D000EF93FF93E0917800F0917900309709F062
:1007E0000995FF91EF91BF91AF919F918F917F916B
:1007F0006F915F914F913F912F910F900FBE0F908E
:100800001F9018951F920F920FB60F9211242F93DD
:100810003F934F935F936F937F938F939F93AF9388
:10082000BF93EF93FF93E0917A00F0917B003097B4
:1008300009F00995FF91EF91BF91AF919F918F9131
:100840007F916F915F914F913F912F910F900FBECC
:100850000F901F90189590937B0080937A000895D5
:10086000909379008093780008958FB780688FBF48
:1008700008958FB78F778FBF0895813071F038F06A
:10088000823071F08330A1F485B7816002C085B7F2
:100890008E7F85BF85B78D7F08C085B78E7F02C0EC
:1008A00085B7816085BF85B7826085BF80E001C064
:1008B00081E09BB790649BBF0895813071F038F060
:1008C000823071F08330A1F485B7846002C085B7AF
:1008D0008B7F85BF85B7877F08C085B78B7F02C0B8
:1008E00085B7846085BF85B7886085BF80E001C01B
:1008F00081E09BB790689BBF0895813029F08230DA
:1009000041F484B7806402C084B78F7B84BF80E0E9
:1009100001C081E09BB790629BBF089590938100D6
:100920008093800008951F920F920FB60F921124AA
:100930002F933F934F935F936F937F938F939F93E7
:10094000AF93BF93EF93FF93E0918000F09181000C
:10095000309709F00995FF91EF91BF91AF919F9169
:100960008F917F916F915F914F913F912F910F9058
:100970000FBE0F901F90189590937F0080937E007C
:1009800008951F920F920FB60F9211242F933F9349
:100990004F935F936F937F938F939F93AF93BF9387
:1009A000EF93FF93E0917E00F0917F00309709F084
:1009B0000995FF91EF91BF91AF919F918F917F9199
:1009C0006F915F914F913F912F910F900FBE0F90BC
:1009D0001F90189590937D0080937C0008951F923E
:1009E0000F920FB60F9211242F933F934F935F9363
:1009F0006F937F938F939F93AF93BF93EF93FF93E7
:100A0000E0917C00F0917D00309709F00995FF910D
:100A1000EF91BF91AF919F918F917F916F915F9176
:100A20004F913F912F910F900FBE0F901F901895EF
:100A300080918400811105C081E080938400109230
:100A400083000895809182008F5F809382000895D3
:100A5000CF93DF931F92CDB7DEB719820E94AE030A
:100A6000CE0101960E94C303809182008330C1F7BA
:100A7000109282000E94B7030F90DF91CF910895EA
:100A800041E063E480E00E94490080E091E40E943C
:100A9000450281E091E40E94450282E091E40E94D7
:100AA000450280E092E40E94450281E092E40E94C7
:100AB000450282E092E40E94450262E074E480E034
:100AC0000E9424020E943504109285001092870033
:100AD00085E08093860085E890E00E946A030E948A
:100AE000C90382E295E00E942B0481E00E943D044C
:100AF00088E195E00E948E04D2E0C5E013E0809189
:100B00008400813039F138F0823009F448C08330F4
:100B100009F465C091C0809183008233B8F480E00D
:100B200091E40E94530282E092E40E94530280E02A
:100B300092E40E94610282E091E40E94610281E0FD
:100B400092E40E94610281E091E443C081E08093DD
:100B5000840070C0809183008233F0F482E092E4DC
:100B60000E94530282E091E40E94610280E091E4DD
:100B70000E94610280E092E40E94610281E092E4BE
:100B80000E946102809183006C2F0E9426069111C1
:100B900049C081E091E444C0D09384004BC080916F
:100BA00083008233C8F480E092E40E94530282E022
:100BB00091E40E94530280E091E40E94610282E08D
:100BC00092E40E94610281E091E40E94610281E06E
:100BD00092E40E94610226C0109384002BC0809191
:100BE0008300823328F582E091E40E94530282E080
:100BF00092E40E94610280E091E40E94610280E040
:100C000092E40E94610281E091E40E94610280917D
:100C100083006C2F0E942606911104C081E092E4AB
:100C20000E946F02809183008F5F8093830004C0D5
:100C3000109284001092830085E890E00E942805BD
:100C40005ECF0E94400580E090E00895991B79E016
:100C500004C0991F961708F0961B881F7A95C9F74C
:080C600080950895F894FFCF80
:100C68003738392F3435362A3132332D43303D2B3E
:080C7800000102030405060758
:00000001FF
